{"contracts/Crowdfunding.sol":{"Crowdfunding":{"abi":[{"anonymous":false,"inputs":[{"indexed":false,"internalType":"uint256","name":"campaignId","type":"uint256"},{"indexed":false,"internalType":"string","name":"name","type":"string"},{"indexed":false,"internalType":"address","name":"creator","type":"address"},{"indexed":false,"internalType":"uint256","name":"goal","type":"uint256"},{"indexed":false,"internalType":"uint256","name":"deadline","type":"uint256"}],"name":"NewCampaign","type":"event"},{"inputs":[{"internalType":"uint256","name":"","type":"uint256"}],"name":"campaigns","outputs":[{"internalType":"address payable","name":"creator","type":"address"},{"internalType":"string","name":"name","type":"string"},{"internalType":"string","name":"description","type":"string"},{"internalType":"string","name":"image","type":"string"},{"internalType":"uint256","name":"goal","type":"uint256"},{"internalType":"uint256","name":"raised","type":"uint256"},{"internalType":"uint256","name":"deadline","type":"uint256"},{"internalType":"bool","name":"completed","type":"bool"}],"stateMutability":"view","type":"function"},{"inputs":[{"internalType":"uint256","name":"campaignId","type":"uint256"}],"name":"completeCampaign","outputs":[],"stateMutability":"nonpayable","type":"function"},{"inputs":[{"internalType":"string","name":"_name","type":"string"},{"internalType":"uint256","name":"_goal","type":"uint256"},{"internalType":"uint256","name":"duration","type":"uint256"},{"internalType":"string","name":"_description","type":"string"},{"internalType":"string","name":"_image","type":"string"}],"name":"createCampaign","outputs":[],"stateMutability":"nonpayable","type":"function"},{"inputs":[{"internalType":"uint256","name":"campaignId","type":"uint256"}],"name":"donate","outputs":[],"stateMutability":"payable","type":"function"},{"inputs":[{"internalType":"uint256","name":"","type":"uint256"},{"internalType":"address","name":"","type":"address"}],"name":"donations","outputs":[{"internalType":"uint256","name":"","type":"uint256"}],"stateMutability":"view","type":"function"},{"inputs":[{"internalType":"uint256","name":"campaignId","type":"uint256"}],"name":"getAmountRaised","outputs":[{"internalType":"uint256","name":"","type":"uint256"}],"stateMutability":"view","type":"function"},{"inputs":[],"name":"getCampaigns","outputs":[{"components":[{"internalType":"address payable","name":"creator","type":"address"},{"internalType":"string","name":"name","type":"string"},{"internalType":"string","name":"description","type":"string"},{"internalType":"string","name":"image","type":"string"},{"internalType":"uint256","name":"goal","type":"uint256"},{"internalType":"uint256","name":"raised","type":"uint256"},{"internalType":"uint256","name":"deadline","type":"uint256"},{"internalType":"bool","name":"completed","type":"bool"}],"internalType":"struct Crowdfunding.Campaign[]","name":"","type":"tuple[]"}],"stateMutability":"view","type":"function"},{"inputs":[{"internalType":"uint256","name":"campaignId","type":"uint256"}],"name":"hasReachedGoal","outputs":[{"internalType":"bool","name":"","type":"bool"}],"stateMutability":"view","type":"function"}],"devdoc":{"kind":"dev","methods":{},"version":1},"evm":{"bytecode":{"linkReferences":{},"object":"608060405234801561001057600080fd5b506116d0806100206000396000f3fe60806040526004361061007b5760003560e01c80639553f1801161004e5780639553f18014610167578063a6b0363314610190578063ee1554a3146101bb578063f14faf6f146101f85761007b565b8063141961bc146100805780634b2aafcc146100c4578063530295fb146100ed578063641805ff1461012a575b600080fd5b34801561008c57600080fd5b506100a760048036038101906100a29190610e53565b610214565b6040516100bb989796959493929190611143565b60405180910390f35b3480156100d057600080fd5b506100eb60048036038101906100e69190610d94565b610431565b005b3480156100f957600080fd5b50610114600480360381019061010f9190610e53565b6105fb565b60405161012191906111f8565b60405180910390f35b34801561013657600080fd5b50610151600480360381019061014c9190610e53565b61065c565b60405161015e9190611273565b60405180910390f35b34801561017357600080fd5b5061018e60048036038101906101899190610e53565b6106b6565b005b34801561019c57600080fd5b506101a561082c565b6040516101b291906111d6565b60405180910390f35b3480156101c757600080fd5b506101e260048036038101906101dd9190610e7c565b610ad1565b6040516101ef9190611273565b60405180910390f35b610212600480360381019061020d9190610e53565b610af6565b005b6001818154811061022457600080fd5b90600052602060002090600802016000915090508060000160009054906101000a900473ffffffffffffffffffffffffffffffffffffffff169080600101805461026d906114ca565b80601f0160208091040260200160405190810160405280929190818152602001828054610299906114ca565b80156102e65780601f106102bb576101008083540402835291602001916102e6565b820191906000526020600020905b8154815290600101906020018083116102c957829003601f168201915b5050505050908060020180546102fb906114ca565b80601f0160208091040260200160405190810160405280929190818152602001828054610327906114ca565b80156103745780601f1061034957610100808354040283529160200191610374565b820191906000526020600020905b81548152906001019060200180831161035757829003601f168201915b505050505090806003018054610389906114ca565b80601f01602080910402602001604051908101604052809291908181526020018280546103b5906114ca565b80156104025780601f106103d757610100808354040283529160200191610402565b820191906000526020600020905b8154815290600101906020018083116103e557829003601f168201915b5050505050908060040154908060050154908060060154908060070160009054906101000a900460ff16905088565b6000834261043f91906113a4565b905060016040518061010001604052803373ffffffffffffffffffffffffffffffffffffffff1681526020018881526020018581526020018481526020018781526020016000815260200183815260200160001515815250908060018154018082558091505060019003906000526020600020906008020160009091909190915060008201518160000160006101000a81548173ffffffffffffffffffffffffffffffffffffffff021916908373ffffffffffffffffffffffffffffffffffffffff1602179055506020820151816001019080519060200190610523929190610c5f565b506040820151816002019080519060200190610540929190610c5f565b50606082015181600301908051906020019061055d929190610c5f565b506080820151816004015560a0820151816005015560c0820151816006015560e08201518160070160006101000a81548160ff02191690831515021790555050506000600180805490506105b191906113fa565b90507f529b0e5bf14d532e92963d3a08e9953e0c334128080bdf5d050dab5c20207e9b81883389866040516105ea95949392919061128e565b60405180910390a150505050505050565b60008060018381548110610638577f4e487b7100000000000000000000000000000000000000000000000000000000600052603260045260246000fd5b90600052602060002090600802019050806004015481600501541015915050919050565b60008060018381548110610699577f4e487b7100000000000000000000000000000000000000000000000000000000600052603260045260246000fd5b906000526020600020906008020190508060050154915050919050565b6000600182815481106106f2577f4e487b7100000000000000000000000000000000000000000000000000000000600052603260045260246000fd5b906000526020600020906008020190508060070160009054906101000a900460ff1615610754576040517f08c379a000000000000000000000000000000000000000000000000000000000815260040161074b90611233565b60405180910390fd5b61075d826105fb565b61079c576040517f08c379a000000000000000000000000000000000000000000000000000000000815260040161079390611213565b60405180910390fd5b60018160070160006101000a81548160ff0219169083151502179055508060000160009054906101000a900473ffffffffffffffffffffffffffffffffffffffff1673ffffffffffffffffffffffffffffffffffffffff166108fc82600501549081150290604051600060405180830381858888f19350505050158015610827573d6000803e3d6000fd5b505050565b60606001805480602002602001604051908101604052809291908181526020016000905b82821015610ac85783829060005260206000209060080201604051806101000160405290816000820160009054906101000a900473ffffffffffffffffffffffffffffffffffffffff1673ffffffffffffffffffffffffffffffffffffffff1673ffffffffffffffffffffffffffffffffffffffff1681526020016001820180546108da906114ca565b80601f0160208091040260200160405190810160405280929190818152602001828054610906906114ca565b80156109535780601f1061092857610100808354040283529160200191610953565b820191906000526020600020905b81548152906001019060200180831161093657829003601f168201915b5050505050815260200160028201805461096c906114ca565b80601f0160208091040260200160405190810160405280929190818152602001828054610998906114ca565b80156109e55780601f106109ba576101008083540402835291602001916109e5565b820191906000526020600020905b8154815290600101906020018083116109c857829003601f168201915b505050505081526020016003820180546109fe906114ca565b80601f0160208091040260200160405190810160405280929190818152602001828054610a2a906114ca565b8015610a775780601f10610a4c57610100808354040283529160200191610a77565b820191906000526020600020905b815481529060010190602001808311610a5a57829003601f168201915b505050505081526020016004820154815260200160058201548152602001600682015481526020016007820160009054906101000a900460ff16151515158152505081526020019060010190610850565b50505050905090565b6000602052816000526040600020602052806000526040600020600091509150505481565b600060018281548110610b32577f4e487b7100000000000000000000000000000000000000000000000000000000600052603260045260246000fd5b906000526020600020906008020190508060070160009054906101000a900460ff1615610b94576040517f08c379a0000000000000000000000000000000000000000000000000000000008152600401610b8b90611233565b60405180910390fd5b80600601544210610bda576040517f08c379a0000000000000000000000000000000000000000000000000000000008152600401610bd190611253565b60405180910390fd5b3460008084815260200190815260200160002060003373ffffffffffffffffffffffffffffffffffffffff1673ffffffffffffffffffffffffffffffffffffffff1681526020019081526020016000206000828254610c3991906113a4565b9250508190555034816005016000828254610c5491906113a4565b925050819055505050565b828054610c6b906114ca565b90600052602060002090601f016020900481019282610c8d5760008555610cd4565b82601f10610ca657805160ff1916838001178555610cd4565b82800160010185558215610cd4579182015b82811115610cd3578251825591602001919060010190610cb8565b5b509050610ce19190610ce5565b5090565b5b80821115610cfe576000816000905550600101610ce6565b5090565b6000610d15610d108461130d565b6112e8565b905082815260208101848484011115610d2d57600080fd5b610d38848285611488565b509392505050565b600081359050610d4f8161166c565b92915050565b600082601f830112610d6657600080fd5b8135610d76848260208601610d02565b91505092915050565b600081359050610d8e81611683565b92915050565b600080600080600060a08688031215610dac57600080fd5b600086013567ffffffffffffffff811115610dc657600080fd5b610dd288828901610d55565b9550506020610de388828901610d7f565b9450506040610df488828901610d7f565b935050606086013567ffffffffffffffff811115610e1157600080fd5b610e1d88828901610d55565b925050608086013567ffffffffffffffff811115610e3a57600080fd5b610e4688828901610d55565b9150509295509295909350565b600060208284031215610e6557600080fd5b6000610e7384828501610d7f565b91505092915050565b60008060408385031215610e8f57600080fd5b6000610e9d85828601610d7f565b9250506020610eae85828601610d40565b9150509250929050565b6000610ec48383611067565b905092915050565b610ed581611440565b82525050565b610ee481611440565b82525050565b610ef38161142e565b82525050565b6000610f048261134e565b610f0e8185611371565b935083602082028501610f208561133e565b8060005b85811015610f5c5784840389528151610f3d8582610eb8565b9450610f4883611364565b925060208a01995050600181019050610f24565b50829750879550505050505092915050565b610f7781611452565b82525050565b610f8681611452565b82525050565b6000610f9782611359565b610fa18185611382565b9350610fb1818560208601611497565b610fba816115ba565b840191505092915050565b6000610fd082611359565b610fda8185611393565b9350610fea818560208601611497565b610ff3816115ba565b840191505092915050565b600061100b602183611393565b9150611016826115cb565b604082019050919050565b600061102e601e83611393565b91506110398261161a565b602082019050919050565b6000611051601c83611393565b915061105c82611643565b602082019050919050565b6000610100830160008301516110806000860182610ecc565b50602083015184820360208601526110988282610f8c565b915050604083015184820360408601526110b28282610f8c565b915050606083015184820360608601526110cc8282610f8c565b91505060808301516110e16080860182611125565b5060a08301516110f460a0860182611125565b5060c083015161110760c0860182611125565b5060e083015161111a60e0860182610f6e565b508091505092915050565b61112e8161147e565b82525050565b61113d8161147e565b82525050565b600061010082019050611159600083018b610edb565b818103602083015261116b818a610fc5565b9050818103604083015261117f8189610fc5565b905081810360608301526111938188610fc5565b90506111a26080830187611134565b6111af60a0830186611134565b6111bc60c0830185611134565b6111c960e0830184610f7d565b9998505050505050505050565b600060208201905081810360008301526111f08184610ef9565b905092915050565b600060208201905061120d6000830184610f7d565b92915050565b6000602082019050818103600083015261122c81610ffe565b9050919050565b6000602082019050818103600083015261124c81611021565b9050919050565b6000602082019050818103600083015261126c81611044565b9050919050565b60006020820190506112886000830184611134565b92915050565b600060a0820190506112a36000830188611134565b81810360208301526112b58187610fc5565b90506112c46040830186610eea565b6112d16060830185611134565b6112de6080830184611134565b9695505050505050565b60006112f2611303565b90506112fe82826114fc565b919050565b6000604051905090565b600067ffffffffffffffff8211156113285761132761158b565b5b611331826115ba565b9050602081019050919050565b6000819050602082019050919050565b600081519050919050565b600081519050919050565b6000602082019050919050565b600082825260208201905092915050565b600082825260208201905092915050565b600082825260208201905092915050565b60006113af8261147e565b91506113ba8361147e565b9250827fffffffffffffffffffffffffffffffffffffffffffffffffffffffffffffffff038211156113ef576113ee61152d565b5b828201905092915050565b60006114058261147e565b91506114108361147e565b9250828210156114235761142261152d565b5b828203905092915050565b60006114398261145e565b9050919050565b600061144b8261145e565b9050919050565b60008115159050919050565b600073ffffffffffffffffffffffffffffffffffffffff82169050919050565b6000819050919050565b82818337600083830152505050565b60005b838110156114b557808201518184015260208101905061149a565b838111156114c4576000848401525b50505050565b600060028204905060018216806114e257607f821691505b602082108114156114f6576114f561155c565b5b50919050565b611505826115ba565b810181811067ffffffffffffffff821117156115245761152361158b565b5b80604052505050565b7f4e487b7100000000000000000000000000000000000000000000000000000000600052601160045260246000fd5b7f4e487b7100000000000000000000000000000000000000000000000000000000600052602260045260246000fd5b7f4e487b7100000000000000000000000000000000000000000000000000000000600052604160045260246000fd5b6000601f19601f8301169050919050565b7f43616d706169676e20686173206e6f7420726561636865642069747320676f6160008201527f6c00000000000000000000000000000000000000000000000000000000000000602082015250565b7f43616d706169676e2068617320616c726561647920636f6d706c657465640000600082015250565b7f43616d706169676e20646561646c696e65206861732070617373656400000000600082015250565b6116758161142e565b811461168057600080fd5b50565b61168c8161147e565b811461169757600080fd5b5056fea2646970667358221220a2e9687e0e77dc204e983f541f52d6801dcf0b1854b0a5113339015ab7683a7b64736f6c63430008040033","opcodes":"PUSH1 0x80 PUSH1 0x40 MSTORE CALLVALUE DUP1 ISZERO PUSH2 0x10 JUMPI PUSH1 0x0 DUP1 REVERT JUMPDEST POP PUSH2 0x16D0 DUP1 PUSH2 0x20 PUSH1 0x0 CODECOPY PUSH1 0x0 RETURN INVALID PUSH1 0x80 PUSH1 0x40 MSTORE PUSH1 0x4 CALLDATASIZE LT PUSH2 0x7B JUMPI PUSH1 0x0 CALLDATALOAD PUSH1 0xE0 SHR DUP1 PUSH4 0x9553F180 GT PUSH2 0x4E JUMPI DUP1 PUSH4 0x9553F180 EQ PUSH2 0x167 JUMPI DUP1 PUSH4 0xA6B03633 EQ PUSH2 0x190 JUMPI DUP1 PUSH4 0xEE1554A3 EQ PUSH2 0x1BB JUMPI DUP1 PUSH4 0xF14FAF6F EQ PUSH2 0x1F8 JUMPI PUSH2 0x7B JUMP JUMPDEST DUP1 PUSH4 0x141961BC EQ PUSH2 0x80 JUMPI DUP1 PUSH4 0x4B2AAFCC EQ PUSH2 0xC4 JUMPI DUP1 PUSH4 0x530295FB EQ PUSH2 0xED JUMPI DUP1 PUSH4 0x641805FF EQ PUSH2 0x12A JUMPI JUMPDEST PUSH1 0x0 DUP1 REVERT JUMPDEST CALLVALUE DUP1 ISZERO PUSH2 0x8C JUMPI PUSH1 0x0 DUP1 REVERT JUMPDEST POP PUSH2 0xA7 PUSH1 0x4 DUP1 CALLDATASIZE SUB DUP2 ADD SWAP1 PUSH2 0xA2 SWAP2 SWAP1 PUSH2 0xE53 JUMP JUMPDEST PUSH2 0x214 JUMP JUMPDEST PUSH1 0x40 MLOAD PUSH2 0xBB SWAP9 SWAP8 SWAP7 SWAP6 SWAP5 SWAP4 SWAP3 SWAP2 SWAP1 PUSH2 0x1143 JUMP JUMPDEST PUSH1 0x40 MLOAD DUP1 SWAP2 SUB SWAP1 RETURN JUMPDEST CALLVALUE DUP1 ISZERO PUSH2 0xD0 JUMPI PUSH1 0x0 DUP1 REVERT JUMPDEST POP PUSH2 0xEB PUSH1 0x4 DUP1 CALLDATASIZE SUB DUP2 ADD SWAP1 PUSH2 0xE6 SWAP2 SWAP1 PUSH2 0xD94 JUMP JUMPDEST PUSH2 0x431 JUMP JUMPDEST STOP JUMPDEST CALLVALUE DUP1 ISZERO PUSH2 0xF9 JUMPI PUSH1 0x0 DUP1 REVERT JUMPDEST POP PUSH2 0x114 PUSH1 0x4 DUP1 CALLDATASIZE SUB DUP2 ADD SWAP1 PUSH2 0x10F SWAP2 SWAP1 PUSH2 0xE53 JUMP JUMPDEST PUSH2 0x5FB JUMP JUMPDEST PUSH1 0x40 MLOAD PUSH2 0x121 SWAP2 SWAP1 PUSH2 0x11F8 JUMP JUMPDEST PUSH1 0x40 MLOAD DUP1 SWAP2 SUB SWAP1 RETURN JUMPDEST CALLVALUE DUP1 ISZERO PUSH2 0x136 JUMPI PUSH1 0x0 DUP1 REVERT JUMPDEST POP PUSH2 0x151 PUSH1 0x4 DUP1 CALLDATASIZE SUB DUP2 ADD SWAP1 PUSH2 0x14C SWAP2 SWAP1 PUSH2 0xE53 JUMP JUMPDEST PUSH2 0x65C JUMP JUMPDEST PUSH1 0x40 MLOAD PUSH2 0x15E SWAP2 SWAP1 PUSH2 0x1273 JUMP JUMPDEST PUSH1 0x40 MLOAD DUP1 SWAP2 SUB SWAP1 RETURN JUMPDEST CALLVALUE DUP1 ISZERO PUSH2 0x173 JUMPI PUSH1 0x0 DUP1 REVERT JUMPDEST POP PUSH2 0x18E PUSH1 0x4 DUP1 CALLDATASIZE SUB DUP2 ADD SWAP1 PUSH2 0x189 SWAP2 SWAP1 PUSH2 0xE53 JUMP JUMPDEST PUSH2 0x6B6 JUMP JUMPDEST STOP JUMPDEST CALLVALUE DUP1 ISZERO PUSH2 0x19C JUMPI PUSH1 0x0 DUP1 REVERT JUMPDEST POP PUSH2 0x1A5 PUSH2 0x82C JUMP JUMPDEST PUSH1 0x40 MLOAD PUSH2 0x1B2 SWAP2 SWAP1 PUSH2 0x11D6 JUMP JUMPDEST PUSH1 0x40 MLOAD DUP1 SWAP2 SUB SWAP1 RETURN JUMPDEST CALLVALUE DUP1 ISZERO PUSH2 0x1C7 JUMPI PUSH1 0x0 DUP1 REVERT JUMPDEST POP PUSH2 0x1E2 PUSH1 0x4 DUP1 CALLDATASIZE SUB DUP2 ADD SWAP1 PUSH2 0x1DD SWAP2 SWAP1 PUSH2 0xE7C JUMP JUMPDEST PUSH2 0xAD1 JUMP JUMPDEST PUSH1 0x40 MLOAD PUSH2 0x1EF SWAP2 SWAP1 PUSH2 0x1273 JUMP JUMPDEST PUSH1 0x40 MLOAD DUP1 SWAP2 SUB SWAP1 RETURN JUMPDEST PUSH2 0x212 PUSH1 0x4 DUP1 CALLDATASIZE SUB DUP2 ADD SWAP1 PUSH2 0x20D SWAP2 SWAP1 PUSH2 0xE53 JUMP JUMPDEST PUSH2 0xAF6 JUMP JUMPDEST STOP JUMPDEST PUSH1 0x1 DUP2 DUP2 SLOAD DUP2 LT PUSH2 0x224 JUMPI PUSH1 0x0 DUP1 REVERT JUMPDEST SWAP1 PUSH1 0x0 MSTORE PUSH1 0x20 PUSH1 0x0 KECCAK256 SWAP1 PUSH1 0x8 MUL ADD PUSH1 0x0 SWAP2 POP SWAP1 POP DUP1 PUSH1 0x0 ADD PUSH1 0x0 SWAP1 SLOAD SWAP1 PUSH2 0x100 EXP SWAP1 DIV PUSH20 0xFFFFFFFFFFFFFFFFFFFFFFFFFFFFFFFFFFFFFFFF AND SWAP1 DUP1 PUSH1 0x1 ADD DUP1 SLOAD PUSH2 0x26D SWAP1 PUSH2 0x14CA JUMP JUMPDEST DUP1 PUSH1 0x1F ADD PUSH1 0x20 DUP1 SWAP2 DIV MUL PUSH1 0x20 ADD PUSH1 0x40 MLOAD SWAP1 DUP2 ADD PUSH1 0x40 MSTORE DUP1 SWAP3 SWAP2 SWAP1 DUP2 DUP2 MSTORE PUSH1 0x20 ADD DUP3 DUP1 SLOAD PUSH2 0x299 SWAP1 PUSH2 0x14CA JUMP JUMPDEST DUP1 ISZERO PUSH2 0x2E6 JUMPI DUP1 PUSH1 0x1F LT PUSH2 0x2BB JUMPI PUSH2 0x100 DUP1 DUP4 SLOAD DIV MUL DUP4 MSTORE SWAP2 PUSH1 0x20 ADD SWAP2 PUSH2 0x2E6 JUMP JUMPDEST DUP3 ADD SWAP2 SWAP1 PUSH1 0x0 MSTORE PUSH1 0x20 PUSH1 0x0 KECCAK256 SWAP1 JUMPDEST DUP2 SLOAD DUP2 MSTORE SWAP1 PUSH1 0x1 ADD SWAP1 PUSH1 0x20 ADD DUP1 DUP4 GT PUSH2 0x2C9 JUMPI DUP3 SWAP1 SUB PUSH1 0x1F AND DUP3 ADD SWAP2 JUMPDEST POP POP POP POP POP SWAP1 DUP1 PUSH1 0x2 ADD DUP1 SLOAD PUSH2 0x2FB SWAP1 PUSH2 0x14CA JUMP JUMPDEST DUP1 PUSH1 0x1F ADD PUSH1 0x20 DUP1 SWAP2 DIV MUL PUSH1 0x20 ADD PUSH1 0x40 MLOAD SWAP1 DUP2 ADD PUSH1 0x40 MSTORE DUP1 SWAP3 SWAP2 SWAP1 DUP2 DUP2 MSTORE PUSH1 0x20 ADD DUP3 DUP1 SLOAD PUSH2 0x327 SWAP1 PUSH2 0x14CA JUMP JUMPDEST DUP1 ISZERO PUSH2 0x374 JUMPI DUP1 PUSH1 0x1F LT PUSH2 0x349 JUMPI PUSH2 0x100 DUP1 DUP4 SLOAD DIV MUL DUP4 MSTORE SWAP2 PUSH1 0x20 ADD SWAP2 PUSH2 0x374 JUMP JUMPDEST DUP3 ADD SWAP2 SWAP1 PUSH1 0x0 MSTORE PUSH1 0x20 PUSH1 0x0 KECCAK256 SWAP1 JUMPDEST DUP2 SLOAD DUP2 MSTORE SWAP1 PUSH1 0x1 ADD SWAP1 PUSH1 0x20 ADD DUP1 DUP4 GT PUSH2 0x357 JUMPI DUP3 SWAP1 SUB PUSH1 0x1F AND DUP3 ADD SWAP2 JUMPDEST POP POP POP POP POP SWAP1 DUP1 PUSH1 0x3 ADD DUP1 SLOAD PUSH2 0x389 SWAP1 PUSH2 0x14CA JUMP JUMPDEST DUP1 PUSH1 0x1F ADD PUSH1 0x20 DUP1 SWAP2 DIV MUL PUSH1 0x20 ADD PUSH1 0x40 MLOAD SWAP1 DUP2 ADD PUSH1 0x40 MSTORE DUP1 SWAP3 SWAP2 SWAP1 DUP2 DUP2 MSTORE PUSH1 0x20 ADD DUP3 DUP1 SLOAD PUSH2 0x3B5 SWAP1 PUSH2 0x14CA JUMP JUMPDEST DUP1 ISZERO PUSH2 0x402 JUMPI DUP1 PUSH1 0x1F LT PUSH2 0x3D7 JUMPI PUSH2 0x100 DUP1 DUP4 SLOAD DIV MUL DUP4 MSTORE SWAP2 PUSH1 0x20 ADD SWAP2 PUSH2 0x402 JUMP JUMPDEST DUP3 ADD SWAP2 SWAP1 PUSH1 0x0 MSTORE PUSH1 0x20 PUSH1 0x0 KECCAK256 SWAP1 JUMPDEST DUP2 SLOAD DUP2 MSTORE SWAP1 PUSH1 0x1 ADD SWAP1 PUSH1 0x20 ADD DUP1 DUP4 GT PUSH2 0x3E5 JUMPI DUP3 SWAP1 SUB PUSH1 0x1F AND DUP3 ADD SWAP2 JUMPDEST POP POP POP POP POP SWAP1 DUP1 PUSH1 0x4 ADD SLOAD SWAP1 DUP1 PUSH1 0x5 ADD SLOAD SWAP1 DUP1 PUSH1 0x6 ADD SLOAD SWAP1 DUP1 PUSH1 0x7 ADD PUSH1 0x0 SWAP1 SLOAD SWAP1 PUSH2 0x100 EXP SWAP1 DIV PUSH1 0xFF AND SWAP1 POP DUP9 JUMP JUMPDEST PUSH1 0x0 DUP4 TIMESTAMP PUSH2 0x43F SWAP2 SWAP1 PUSH2 0x13A4 JUMP JUMPDEST SWAP1 POP PUSH1 0x1 PUSH1 0x40 MLOAD DUP1 PUSH2 0x100 ADD PUSH1 0x40 MSTORE DUP1 CALLER PUSH20 0xFFFFFFFFFFFFFFFFFFFFFFFFFFFFFFFFFFFFFFFF AND DUP2 MSTORE PUSH1 0x20 ADD DUP9 DUP2 MSTORE PUSH1 0x20 ADD DUP6 DUP2 MSTORE PUSH1 0x20 ADD DUP5 DUP2 MSTORE PUSH1 0x20 ADD DUP8 DUP2 MSTORE PUSH1 0x20 ADD PUSH1 0x0 DUP2 MSTORE PUSH1 0x20 ADD DUP4 DUP2 MSTORE PUSH1 0x20 ADD PUSH1 0x0 ISZERO ISZERO DUP2 MSTORE POP SWAP1 DUP1 PUSH1 0x1 DUP2 SLOAD ADD DUP1 DUP3 SSTORE DUP1 SWAP2 POP POP PUSH1 0x1 SWAP1 SUB SWAP1 PUSH1 0x0 MSTORE PUSH1 0x20 PUSH1 0x0 KECCAK256 SWAP1 PUSH1 0x8 MUL ADD PUSH1 0x0 SWAP1 SWAP2 SWAP1 SWAP2 SWAP1 SWAP2 POP PUSH1 0x0 DUP3 ADD MLOAD DUP2 PUSH1 0x0 ADD PUSH1 0x0 PUSH2 0x100 EXP DUP2 SLOAD DUP2 PUSH20 0xFFFFFFFFFFFFFFFFFFFFFFFFFFFFFFFFFFFFFFFF MUL NOT AND SWAP1 DUP4 PUSH20 0xFFFFFFFFFFFFFFFFFFFFFFFFFFFFFFFFFFFFFFFF AND MUL OR SWAP1 SSTORE POP PUSH1 0x20 DUP3 ADD MLOAD DUP2 PUSH1 0x1 ADD SWAP1 DUP1 MLOAD SWAP1 PUSH1 0x20 ADD SWAP1 PUSH2 0x523 SWAP3 SWAP2 SWAP1 PUSH2 0xC5F JUMP JUMPDEST POP PUSH1 0x40 DUP3 ADD MLOAD DUP2 PUSH1 0x2 ADD SWAP1 DUP1 MLOAD SWAP1 PUSH1 0x20 ADD SWAP1 PUSH2 0x540 SWAP3 SWAP2 SWAP1 PUSH2 0xC5F JUMP JUMPDEST POP PUSH1 0x60 DUP3 ADD MLOAD DUP2 PUSH1 0x3 ADD SWAP1 DUP1 MLOAD SWAP1 PUSH1 0x20 ADD SWAP1 PUSH2 0x55D SWAP3 SWAP2 SWAP1 PUSH2 0xC5F JUMP JUMPDEST POP PUSH1 0x80 DUP3 ADD MLOAD DUP2 PUSH1 0x4 ADD SSTORE PUSH1 0xA0 DUP3 ADD MLOAD DUP2 PUSH1 0x5 ADD SSTORE PUSH1 0xC0 DUP3 ADD MLOAD DUP2 PUSH1 0x6 ADD SSTORE PUSH1 0xE0 DUP3 ADD MLOAD DUP2 PUSH1 0x7 ADD PUSH1 0x0 PUSH2 0x100 EXP DUP2 SLOAD DUP2 PUSH1 0xFF MUL NOT AND SWAP1 DUP4 ISZERO ISZERO MUL OR SWAP1 SSTORE POP POP POP PUSH1 0x0 PUSH1 0x1 DUP1 DUP1 SLOAD SWAP1 POP PUSH2 0x5B1 SWAP2 SWAP1 PUSH2 0x13FA JUMP JUMPDEST SWAP1 POP PUSH32 0x529B0E5BF14D532E92963D3A08E9953E0C334128080BDF5D050DAB5C20207E9B DUP2 DUP9 CALLER DUP10 DUP7 PUSH1 0x40 MLOAD PUSH2 0x5EA SWAP6 SWAP5 SWAP4 SWAP3 SWAP2 SWAP1 PUSH2 0x128E JUMP JUMPDEST PUSH1 0x40 MLOAD DUP1 SWAP2 SUB SWAP1 LOG1 POP POP POP POP POP POP POP JUMP JUMPDEST PUSH1 0x0 DUP1 PUSH1 0x1 DUP4 DUP2 SLOAD DUP2 LT PUSH2 0x638 JUMPI PUSH32 0x4E487B7100000000000000000000000000000000000000000000000000000000 PUSH1 0x0 MSTORE PUSH1 0x32 PUSH1 0x4 MSTORE PUSH1 0x24 PUSH1 0x0 REVERT JUMPDEST SWAP1 PUSH1 0x0 MSTORE PUSH1 0x20 PUSH1 0x0 KECCAK256 SWAP1 PUSH1 0x8 MUL ADD SWAP1 POP DUP1 PUSH1 0x4 ADD SLOAD DUP2 PUSH1 0x5 ADD SLOAD LT ISZERO SWAP2 POP POP SWAP2 SWAP1 POP JUMP JUMPDEST PUSH1 0x0 DUP1 PUSH1 0x1 DUP4 DUP2 SLOAD DUP2 LT PUSH2 0x699 JUMPI PUSH32 0x4E487B7100000000000000000000000000000000000000000000000000000000 PUSH1 0x0 MSTORE PUSH1 0x32 PUSH1 0x4 MSTORE PUSH1 0x24 PUSH1 0x0 REVERT JUMPDEST SWAP1 PUSH1 0x0 MSTORE PUSH1 0x20 PUSH1 0x0 KECCAK256 SWAP1 PUSH1 0x8 MUL ADD SWAP1 POP DUP1 PUSH1 0x5 ADD SLOAD SWAP2 POP POP SWAP2 SWAP1 POP JUMP JUMPDEST PUSH1 0x0 PUSH1 0x1 DUP3 DUP2 SLOAD DUP2 LT PUSH2 0x6F2 JUMPI PUSH32 0x4E487B7100000000000000000000000000000000000000000000000000000000 PUSH1 0x0 MSTORE PUSH1 0x32 PUSH1 0x4 MSTORE PUSH1 0x24 PUSH1 0x0 REVERT JUMPDEST SWAP1 PUSH1 0x0 MSTORE PUSH1 0x20 PUSH1 0x0 KECCAK256 SWAP1 PUSH1 0x8 MUL ADD SWAP1 POP DUP1 PUSH1 0x7 ADD PUSH1 0x0 SWAP1 SLOAD SWAP1 PUSH2 0x100 EXP SWAP1 DIV PUSH1 0xFF AND ISZERO PUSH2 0x754 JUMPI PUSH1 0x40 MLOAD PUSH32 0x8C379A000000000000000000000000000000000000000000000000000000000 DUP2 MSTORE PUSH1 0x4 ADD PUSH2 0x74B SWAP1 PUSH2 0x1233 JUMP JUMPDEST PUSH1 0x40 MLOAD DUP1 SWAP2 SUB SWAP1 REVERT JUMPDEST PUSH2 0x75D DUP3 PUSH2 0x5FB JUMP JUMPDEST PUSH2 0x79C JUMPI PUSH1 0x40 MLOAD PUSH32 0x8C379A000000000000000000000000000000000000000000000000000000000 DUP2 MSTORE PUSH1 0x4 ADD PUSH2 0x793 SWAP1 PUSH2 0x1213 JUMP JUMPDEST PUSH1 0x40 MLOAD DUP1 SWAP2 SUB SWAP1 REVERT JUMPDEST PUSH1 0x1 DUP2 PUSH1 0x7 ADD PUSH1 0x0 PUSH2 0x100 EXP DUP2 SLOAD DUP2 PUSH1 0xFF MUL NOT AND SWAP1 DUP4 ISZERO ISZERO MUL OR SWAP1 SSTORE POP DUP1 PUSH1 0x0 ADD PUSH1 0x0 SWAP1 SLOAD SWAP1 PUSH2 0x100 EXP SWAP1 DIV PUSH20 0xFFFFFFFFFFFFFFFFFFFFFFFFFFFFFFFFFFFFFFFF AND PUSH20 0xFFFFFFFFFFFFFFFFFFFFFFFFFFFFFFFFFFFFFFFF AND PUSH2 0x8FC DUP3 PUSH1 0x5 ADD SLOAD SWAP1 DUP2 ISZERO MUL SWAP1 PUSH1 0x40 MLOAD PUSH1 0x0 PUSH1 0x40 MLOAD DUP1 DUP4 SUB DUP2 DUP6 DUP9 DUP9 CALL SWAP4 POP POP POP POP ISZERO DUP1 ISZERO PUSH2 0x827 JUMPI RETURNDATASIZE PUSH1 0x0 DUP1 RETURNDATACOPY RETURNDATASIZE PUSH1 0x0 REVERT JUMPDEST POP POP POP JUMP JUMPDEST PUSH1 0x60 PUSH1 0x1 DUP1 SLOAD DUP1 PUSH1 0x20 MUL PUSH1 0x20 ADD PUSH1 0x40 MLOAD SWAP1 DUP2 ADD PUSH1 0x40 MSTORE DUP1 SWAP3 SWAP2 SWAP1 DUP2 DUP2 MSTORE PUSH1 0x20 ADD PUSH1 0x0 SWAP1 JUMPDEST DUP3 DUP3 LT ISZERO PUSH2 0xAC8 JUMPI DUP4 DUP3 SWAP1 PUSH1 0x0 MSTORE PUSH1 0x20 PUSH1 0x0 KECCAK256 SWAP1 PUSH1 0x8 MUL ADD PUSH1 0x40 MLOAD DUP1 PUSH2 0x100 ADD PUSH1 0x40 MSTORE SWAP1 DUP2 PUSH1 0x0 DUP3 ADD PUSH1 0x0 SWAP1 SLOAD SWAP1 PUSH2 0x100 EXP SWAP1 DIV PUSH20 0xFFFFFFFFFFFFFFFFFFFFFFFFFFFFFFFFFFFFFFFF AND PUSH20 0xFFFFFFFFFFFFFFFFFFFFFFFFFFFFFFFFFFFFFFFF AND PUSH20 0xFFFFFFFFFFFFFFFFFFFFFFFFFFFFFFFFFFFFFFFF AND DUP2 MSTORE PUSH1 0x20 ADD PUSH1 0x1 DUP3 ADD DUP1 SLOAD PUSH2 0x8DA SWAP1 PUSH2 0x14CA JUMP JUMPDEST DUP1 PUSH1 0x1F ADD PUSH1 0x20 DUP1 SWAP2 DIV MUL PUSH1 0x20 ADD PUSH1 0x40 MLOAD SWAP1 DUP2 ADD PUSH1 0x40 MSTORE DUP1 SWAP3 SWAP2 SWAP1 DUP2 DUP2 MSTORE PUSH1 0x20 ADD DUP3 DUP1 SLOAD PUSH2 0x906 SWAP1 PUSH2 0x14CA JUMP JUMPDEST DUP1 ISZERO PUSH2 0x953 JUMPI DUP1 PUSH1 0x1F LT PUSH2 0x928 JUMPI PUSH2 0x100 DUP1 DUP4 SLOAD DIV MUL DUP4 MSTORE SWAP2 PUSH1 0x20 ADD SWAP2 PUSH2 0x953 JUMP JUMPDEST DUP3 ADD SWAP2 SWAP1 PUSH1 0x0 MSTORE PUSH1 0x20 PUSH1 0x0 KECCAK256 SWAP1 JUMPDEST DUP2 SLOAD DUP2 MSTORE SWAP1 PUSH1 0x1 ADD SWAP1 PUSH1 0x20 ADD DUP1 DUP4 GT PUSH2 0x936 JUMPI DUP3 SWAP1 SUB PUSH1 0x1F AND DUP3 ADD SWAP2 JUMPDEST POP POP POP POP POP DUP2 MSTORE PUSH1 0x20 ADD PUSH1 0x2 DUP3 ADD DUP1 SLOAD PUSH2 0x96C SWAP1 PUSH2 0x14CA JUMP JUMPDEST DUP1 PUSH1 0x1F ADD PUSH1 0x20 DUP1 SWAP2 DIV MUL PUSH1 0x20 ADD PUSH1 0x40 MLOAD SWAP1 DUP2 ADD PUSH1 0x40 MSTORE DUP1 SWAP3 SWAP2 SWAP1 DUP2 DUP2 MSTORE PUSH1 0x20 ADD DUP3 DUP1 SLOAD PUSH2 0x998 SWAP1 PUSH2 0x14CA JUMP JUMPDEST DUP1 ISZERO PUSH2 0x9E5 JUMPI DUP1 PUSH1 0x1F LT PUSH2 0x9BA JUMPI PUSH2 0x100 DUP1 DUP4 SLOAD DIV MUL DUP4 MSTORE SWAP2 PUSH1 0x20 ADD SWAP2 PUSH2 0x9E5 JUMP JUMPDEST DUP3 ADD SWAP2 SWAP1 PUSH1 0x0 MSTORE PUSH1 0x20 PUSH1 0x0 KECCAK256 SWAP1 JUMPDEST DUP2 SLOAD DUP2 MSTORE SWAP1 PUSH1 0x1 ADD SWAP1 PUSH1 0x20 ADD DUP1 DUP4 GT PUSH2 0x9C8 JUMPI DUP3 SWAP1 SUB PUSH1 0x1F AND DUP3 ADD SWAP2 JUMPDEST POP POP POP POP POP DUP2 MSTORE PUSH1 0x20 ADD PUSH1 0x3 DUP3 ADD DUP1 SLOAD PUSH2 0x9FE SWAP1 PUSH2 0x14CA JUMP JUMPDEST DUP1 PUSH1 0x1F ADD PUSH1 0x20 DUP1 SWAP2 DIV MUL PUSH1 0x20 ADD PUSH1 0x40 MLOAD SWAP1 DUP2 ADD PUSH1 0x40 MSTORE DUP1 SWAP3 SWAP2 SWAP1 DUP2 DUP2 MSTORE PUSH1 0x20 ADD DUP3 DUP1 SLOAD PUSH2 0xA2A SWAP1 PUSH2 0x14CA JUMP JUMPDEST DUP1 ISZERO PUSH2 0xA77 JUMPI DUP1 PUSH1 0x1F LT PUSH2 0xA4C JUMPI PUSH2 0x100 DUP1 DUP4 SLOAD DIV MUL DUP4 MSTORE SWAP2 PUSH1 0x20 ADD SWAP2 PUSH2 0xA77 JUMP JUMPDEST DUP3 ADD SWAP2 SWAP1 PUSH1 0x0 MSTORE PUSH1 0x20 PUSH1 0x0 KECCAK256 SWAP1 JUMPDEST DUP2 SLOAD DUP2 MSTORE SWAP1 PUSH1 0x1 ADD SWAP1 PUSH1 0x20 ADD DUP1 DUP4 GT PUSH2 0xA5A JUMPI DUP3 SWAP1 SUB PUSH1 0x1F AND DUP3 ADD SWAP2 JUMPDEST POP POP POP POP POP DUP2 MSTORE PUSH1 0x20 ADD PUSH1 0x4 DUP3 ADD SLOAD DUP2 MSTORE PUSH1 0x20 ADD PUSH1 0x5 DUP3 ADD SLOAD DUP2 MSTORE PUSH1 0x20 ADD PUSH1 0x6 DUP3 ADD SLOAD DUP2 MSTORE PUSH1 0x20 ADD PUSH1 0x7 DUP3 ADD PUSH1 0x0 SWAP1 SLOAD SWAP1 PUSH2 0x100 EXP SWAP1 DIV PUSH1 0xFF AND ISZERO ISZERO ISZERO ISZERO DUP2 MSTORE POP POP DUP2 MSTORE PUSH1 0x20 ADD SWAP1 PUSH1 0x1 ADD SWAP1 PUSH2 0x850 JUMP JUMPDEST POP POP POP POP SWAP1 POP SWAP1 JUMP JUMPDEST PUSH1 0x0 PUSH1 0x20 MSTORE DUP2 PUSH1 0x0 MSTORE PUSH1 0x40 PUSH1 0x0 KECCAK256 PUSH1 0x20 MSTORE DUP1 PUSH1 0x0 MSTORE PUSH1 0x40 PUSH1 0x0 KECCAK256 PUSH1 0x0 SWAP2 POP SWAP2 POP POP SLOAD DUP2 JUMP JUMPDEST PUSH1 0x0 PUSH1 0x1 DUP3 DUP2 SLOAD DUP2 LT PUSH2 0xB32 JUMPI PUSH32 0x4E487B7100000000000000000000000000000000000000000000000000000000 PUSH1 0x0 MSTORE PUSH1 0x32 PUSH1 0x4 MSTORE PUSH1 0x24 PUSH1 0x0 REVERT JUMPDEST SWAP1 PUSH1 0x0 MSTORE PUSH1 0x20 PUSH1 0x0 KECCAK256 SWAP1 PUSH1 0x8 MUL ADD SWAP1 POP DUP1 PUSH1 0x7 ADD PUSH1 0x0 SWAP1 SLOAD SWAP1 PUSH2 0x100 EXP SWAP1 DIV PUSH1 0xFF AND ISZERO PUSH2 0xB94 JUMPI PUSH1 0x40 MLOAD PUSH32 0x8C379A000000000000000000000000000000000000000000000000000000000 DUP2 MSTORE PUSH1 0x4 ADD PUSH2 0xB8B SWAP1 PUSH2 0x1233 JUMP JUMPDEST PUSH1 0x40 MLOAD DUP1 SWAP2 SUB SWAP1 REVERT JUMPDEST DUP1 PUSH1 0x6 ADD SLOAD TIMESTAMP LT PUSH2 0xBDA JUMPI PUSH1 0x40 MLOAD PUSH32 0x8C379A000000000000000000000000000000000000000000000000000000000 DUP2 MSTORE PUSH1 0x4 ADD PUSH2 0xBD1 SWAP1 PUSH2 0x1253 JUMP JUMPDEST PUSH1 0x40 MLOAD DUP1 SWAP2 SUB SWAP1 REVERT JUMPDEST CALLVALUE PUSH1 0x0 DUP1 DUP5 DUP2 MSTORE PUSH1 0x20 ADD SWAP1 DUP2 MSTORE PUSH1 0x20 ADD PUSH1 0x0 KECCAK256 PUSH1 0x0 CALLER PUSH20 0xFFFFFFFFFFFFFFFFFFFFFFFFFFFFFFFFFFFFFFFF AND PUSH20 0xFFFFFFFFFFFFFFFFFFFFFFFFFFFFFFFFFFFFFFFF AND DUP2 MSTORE PUSH1 0x20 ADD SWAP1 DUP2 MSTORE PUSH1 0x20 ADD PUSH1 0x0 KECCAK256 PUSH1 0x0 DUP3 DUP3 SLOAD PUSH2 0xC39 SWAP2 SWAP1 PUSH2 0x13A4 JUMP JUMPDEST SWAP3 POP POP DUP2 SWAP1 SSTORE POP CALLVALUE DUP2 PUSH1 0x5 ADD PUSH1 0x0 DUP3 DUP3 SLOAD PUSH2 0xC54 SWAP2 SWAP1 PUSH2 0x13A4 JUMP JUMPDEST SWAP3 POP POP DUP2 SWAP1 SSTORE POP POP POP JUMP JUMPDEST DUP3 DUP1 SLOAD PUSH2 0xC6B SWAP1 PUSH2 0x14CA JUMP JUMPDEST SWAP1 PUSH1 0x0 MSTORE PUSH1 0x20 PUSH1 0x0 KECCAK256 SWAP1 PUSH1 0x1F ADD PUSH1 0x20 SWAP1 DIV DUP2 ADD SWAP3 DUP3 PUSH2 0xC8D JUMPI PUSH1 0x0 DUP6 SSTORE PUSH2 0xCD4 JUMP JUMPDEST DUP3 PUSH1 0x1F LT PUSH2 0xCA6 JUMPI DUP1 MLOAD PUSH1 0xFF NOT AND DUP4 DUP1 ADD OR DUP6 SSTORE PUSH2 0xCD4 JUMP JUMPDEST DUP3 DUP1 ADD PUSH1 0x1 ADD DUP6 SSTORE DUP3 ISZERO PUSH2 0xCD4 JUMPI SWAP2 DUP3 ADD JUMPDEST DUP3 DUP2 GT ISZERO PUSH2 0xCD3 JUMPI DUP3 MLOAD DUP3 SSTORE SWAP2 PUSH1 0x20 ADD SWAP2 SWAP1 PUSH1 0x1 ADD SWAP1 PUSH2 0xCB8 JUMP JUMPDEST JUMPDEST POP SWAP1 POP PUSH2 0xCE1 SWAP2 SWAP1 PUSH2 0xCE5 JUMP JUMPDEST POP SWAP1 JUMP JUMPDEST JUMPDEST DUP1 DUP3 GT ISZERO PUSH2 0xCFE JUMPI PUSH1 0x0 DUP2 PUSH1 0x0 SWAP1 SSTORE POP PUSH1 0x1 ADD PUSH2 0xCE6 JUMP JUMPDEST POP SWAP1 JUMP JUMPDEST PUSH1 0x0 PUSH2 0xD15 PUSH2 0xD10 DUP5 PUSH2 0x130D JUMP JUMPDEST PUSH2 0x12E8 JUMP JUMPDEST SWAP1 POP DUP3 DUP2 MSTORE PUSH1 0x20 DUP2 ADD DUP5 DUP5 DUP5 ADD GT ISZERO PUSH2 0xD2D JUMPI PUSH1 0x0 DUP1 REVERT JUMPDEST PUSH2 0xD38 DUP5 DUP3 DUP6 PUSH2 0x1488 JUMP JUMPDEST POP SWAP4 SWAP3 POP POP POP JUMP JUMPDEST PUSH1 0x0 DUP2 CALLDATALOAD SWAP1 POP PUSH2 0xD4F DUP2 PUSH2 0x166C JUMP JUMPDEST SWAP3 SWAP2 POP POP JUMP JUMPDEST PUSH1 0x0 DUP3 PUSH1 0x1F DUP4 ADD SLT PUSH2 0xD66 JUMPI PUSH1 0x0 DUP1 REVERT JUMPDEST DUP2 CALLDATALOAD PUSH2 0xD76 DUP5 DUP3 PUSH1 0x20 DUP7 ADD PUSH2 0xD02 JUMP JUMPDEST SWAP2 POP POP SWAP3 SWAP2 POP POP JUMP JUMPDEST PUSH1 0x0 DUP2 CALLDATALOAD SWAP1 POP PUSH2 0xD8E DUP2 PUSH2 0x1683 JUMP JUMPDEST SWAP3 SWAP2 POP POP JUMP JUMPDEST PUSH1 0x0 DUP1 PUSH1 0x0 DUP1 PUSH1 0x0 PUSH1 0xA0 DUP7 DUP9 SUB SLT ISZERO PUSH2 0xDAC JUMPI PUSH1 0x0 DUP1 REVERT JUMPDEST PUSH1 0x0 DUP7 ADD CALLDATALOAD PUSH8 0xFFFFFFFFFFFFFFFF DUP2 GT ISZERO PUSH2 0xDC6 JUMPI PUSH1 0x0 DUP1 REVERT JUMPDEST PUSH2 0xDD2 DUP9 DUP3 DUP10 ADD PUSH2 0xD55 JUMP JUMPDEST SWAP6 POP POP PUSH1 0x20 PUSH2 0xDE3 DUP9 DUP3 DUP10 ADD PUSH2 0xD7F JUMP JUMPDEST SWAP5 POP POP PUSH1 0x40 PUSH2 0xDF4 DUP9 DUP3 DUP10 ADD PUSH2 0xD7F JUMP JUMPDEST SWAP4 POP POP PUSH1 0x60 DUP7 ADD CALLDATALOAD PUSH8 0xFFFFFFFFFFFFFFFF DUP2 GT ISZERO PUSH2 0xE11 JUMPI PUSH1 0x0 DUP1 REVERT JUMPDEST PUSH2 0xE1D DUP9 DUP3 DUP10 ADD PUSH2 0xD55 JUMP JUMPDEST SWAP3 POP POP PUSH1 0x80 DUP7 ADD CALLDATALOAD PUSH8 0xFFFFFFFFFFFFFFFF DUP2 GT ISZERO PUSH2 0xE3A JUMPI PUSH1 0x0 DUP1 REVERT JUMPDEST PUSH2 0xE46 DUP9 DUP3 DUP10 ADD PUSH2 0xD55 JUMP JUMPDEST SWAP2 POP POP SWAP3 SWAP6 POP SWAP3 SWAP6 SWAP1 SWAP4 POP JUMP JUMPDEST PUSH1 0x0 PUSH1 0x20 DUP3 DUP5 SUB SLT ISZERO PUSH2 0xE65 JUMPI PUSH1 0x0 DUP1 REVERT JUMPDEST PUSH1 0x0 PUSH2 0xE73 DUP5 DUP3 DUP6 ADD PUSH2 0xD7F JUMP JUMPDEST SWAP2 POP POP SWAP3 SWAP2 POP POP JUMP JUMPDEST PUSH1 0x0 DUP1 PUSH1 0x40 DUP4 DUP6 SUB SLT ISZERO PUSH2 0xE8F JUMPI PUSH1 0x0 DUP1 REVERT JUMPDEST PUSH1 0x0 PUSH2 0xE9D DUP6 DUP3 DUP7 ADD PUSH2 0xD7F JUMP JUMPDEST SWAP3 POP POP PUSH1 0x20 PUSH2 0xEAE DUP6 DUP3 DUP7 ADD PUSH2 0xD40 JUMP JUMPDEST SWAP2 POP POP SWAP3 POP SWAP3 SWAP1 POP JUMP JUMPDEST PUSH1 0x0 PUSH2 0xEC4 DUP4 DUP4 PUSH2 0x1067 JUMP JUMPDEST SWAP1 POP SWAP3 SWAP2 POP POP JUMP JUMPDEST PUSH2 0xED5 DUP2 PUSH2 0x1440 JUMP JUMPDEST DUP3 MSTORE POP POP JUMP JUMPDEST PUSH2 0xEE4 DUP2 PUSH2 0x1440 JUMP JUMPDEST DUP3 MSTORE POP POP JUMP JUMPDEST PUSH2 0xEF3 DUP2 PUSH2 0x142E JUMP JUMPDEST DUP3 MSTORE POP POP JUMP JUMPDEST PUSH1 0x0 PUSH2 0xF04 DUP3 PUSH2 0x134E JUMP JUMPDEST PUSH2 0xF0E DUP2 DUP6 PUSH2 0x1371 JUMP JUMPDEST SWAP4 POP DUP4 PUSH1 0x20 DUP3 MUL DUP6 ADD PUSH2 0xF20 DUP6 PUSH2 0x133E JUMP JUMPDEST DUP1 PUSH1 0x0 JUMPDEST DUP6 DUP2 LT ISZERO PUSH2 0xF5C JUMPI DUP5 DUP5 SUB DUP10 MSTORE DUP2 MLOAD PUSH2 0xF3D DUP6 DUP3 PUSH2 0xEB8 JUMP JUMPDEST SWAP5 POP PUSH2 0xF48 DUP4 PUSH2 0x1364 JUMP JUMPDEST SWAP3 POP PUSH1 0x20 DUP11 ADD SWAP10 POP POP PUSH1 0x1 DUP2 ADD SWAP1 POP PUSH2 0xF24 JUMP JUMPDEST POP DUP3 SWAP8 POP DUP8 SWAP6 POP POP POP POP POP POP SWAP3 SWAP2 POP POP JUMP JUMPDEST PUSH2 0xF77 DUP2 PUSH2 0x1452 JUMP JUMPDEST DUP3 MSTORE POP POP JUMP JUMPDEST PUSH2 0xF86 DUP2 PUSH2 0x1452 JUMP JUMPDEST DUP3 MSTORE POP POP JUMP JUMPDEST PUSH1 0x0 PUSH2 0xF97 DUP3 PUSH2 0x1359 JUMP JUMPDEST PUSH2 0xFA1 DUP2 DUP6 PUSH2 0x1382 JUMP JUMPDEST SWAP4 POP PUSH2 0xFB1 DUP2 DUP6 PUSH1 0x20 DUP7 ADD PUSH2 0x1497 JUMP JUMPDEST PUSH2 0xFBA DUP2 PUSH2 0x15BA JUMP JUMPDEST DUP5 ADD SWAP2 POP POP SWAP3 SWAP2 POP POP JUMP JUMPDEST PUSH1 0x0 PUSH2 0xFD0 DUP3 PUSH2 0x1359 JUMP JUMPDEST PUSH2 0xFDA DUP2 DUP6 PUSH2 0x1393 JUMP JUMPDEST SWAP4 POP PUSH2 0xFEA DUP2 DUP6 PUSH1 0x20 DUP7 ADD PUSH2 0x1497 JUMP JUMPDEST PUSH2 0xFF3 DUP2 PUSH2 0x15BA JUMP JUMPDEST DUP5 ADD SWAP2 POP POP SWAP3 SWAP2 POP POP JUMP JUMPDEST PUSH1 0x0 PUSH2 0x100B PUSH1 0x21 DUP4 PUSH2 0x1393 JUMP JUMPDEST SWAP2 POP PUSH2 0x1016 DUP3 PUSH2 0x15CB JUMP JUMPDEST PUSH1 0x40 DUP3 ADD SWAP1 POP SWAP2 SWAP1 POP JUMP JUMPDEST PUSH1 0x0 PUSH2 0x102E PUSH1 0x1E DUP4 PUSH2 0x1393 JUMP JUMPDEST SWAP2 POP PUSH2 0x1039 DUP3 PUSH2 0x161A JUMP JUMPDEST PUSH1 0x20 DUP3 ADD SWAP1 POP SWAP2 SWAP1 POP JUMP JUMPDEST PUSH1 0x0 PUSH2 0x1051 PUSH1 0x1C DUP4 PUSH2 0x1393 JUMP JUMPDEST SWAP2 POP PUSH2 0x105C DUP3 PUSH2 0x1643 JUMP JUMPDEST PUSH1 0x20 DUP3 ADD SWAP1 POP SWAP2 SWAP1 POP JUMP JUMPDEST PUSH1 0x0 PUSH2 0x100 DUP4 ADD PUSH1 0x0 DUP4 ADD MLOAD PUSH2 0x1080 PUSH1 0x0 DUP7 ADD DUP3 PUSH2 0xECC JUMP JUMPDEST POP PUSH1 0x20 DUP4 ADD MLOAD DUP5 DUP3 SUB PUSH1 0x20 DUP7 ADD MSTORE PUSH2 0x1098 DUP3 DUP3 PUSH2 0xF8C JUMP JUMPDEST SWAP2 POP POP PUSH1 0x40 DUP4 ADD MLOAD DUP5 DUP3 SUB PUSH1 0x40 DUP7 ADD MSTORE PUSH2 0x10B2 DUP3 DUP3 PUSH2 0xF8C JUMP JUMPDEST SWAP2 POP POP PUSH1 0x60 DUP4 ADD MLOAD DUP5 DUP3 SUB PUSH1 0x60 DUP7 ADD MSTORE PUSH2 0x10CC DUP3 DUP3 PUSH2 0xF8C JUMP JUMPDEST SWAP2 POP POP PUSH1 0x80 DUP4 ADD MLOAD PUSH2 0x10E1 PUSH1 0x80 DUP7 ADD DUP3 PUSH2 0x1125 JUMP JUMPDEST POP PUSH1 0xA0 DUP4 ADD MLOAD PUSH2 0x10F4 PUSH1 0xA0 DUP7 ADD DUP3 PUSH2 0x1125 JUMP JUMPDEST POP PUSH1 0xC0 DUP4 ADD MLOAD PUSH2 0x1107 PUSH1 0xC0 DUP7 ADD DUP3 PUSH2 0x1125 JUMP JUMPDEST POP PUSH1 0xE0 DUP4 ADD MLOAD PUSH2 0x111A PUSH1 0xE0 DUP7 ADD DUP3 PUSH2 0xF6E JUMP JUMPDEST POP DUP1 SWAP2 POP POP SWAP3 SWAP2 POP POP JUMP JUMPDEST PUSH2 0x112E DUP2 PUSH2 0x147E JUMP JUMPDEST DUP3 MSTORE POP POP JUMP JUMPDEST PUSH2 0x113D DUP2 PUSH2 0x147E JUMP JUMPDEST DUP3 MSTORE POP POP JUMP JUMPDEST PUSH1 0x0 PUSH2 0x100 DUP3 ADD SWAP1 POP PUSH2 0x1159 PUSH1 0x0 DUP4 ADD DUP12 PUSH2 0xEDB JUMP JUMPDEST DUP2 DUP2 SUB PUSH1 0x20 DUP4 ADD MSTORE PUSH2 0x116B DUP2 DUP11 PUSH2 0xFC5 JUMP JUMPDEST SWAP1 POP DUP2 DUP2 SUB PUSH1 0x40 DUP4 ADD MSTORE PUSH2 0x117F DUP2 DUP10 PUSH2 0xFC5 JUMP JUMPDEST SWAP1 POP DUP2 DUP2 SUB PUSH1 0x60 DUP4 ADD MSTORE PUSH2 0x1193 DUP2 DUP9 PUSH2 0xFC5 JUMP JUMPDEST SWAP1 POP PUSH2 0x11A2 PUSH1 0x80 DUP4 ADD DUP8 PUSH2 0x1134 JUMP JUMPDEST PUSH2 0x11AF PUSH1 0xA0 DUP4 ADD DUP7 PUSH2 0x1134 JUMP JUMPDEST PUSH2 0x11BC PUSH1 0xC0 DUP4 ADD DUP6 PUSH2 0x1134 JUMP JUMPDEST PUSH2 0x11C9 PUSH1 0xE0 DUP4 ADD DUP5 PUSH2 0xF7D JUMP JUMPDEST SWAP10 SWAP9 POP POP POP POP POP POP POP POP POP JUMP JUMPDEST PUSH1 0x0 PUSH1 0x20 DUP3 ADD SWAP1 POP DUP2 DUP2 SUB PUSH1 0x0 DUP4 ADD MSTORE PUSH2 0x11F0 DUP2 DUP5 PUSH2 0xEF9 JUMP JUMPDEST SWAP1 POP SWAP3 SWAP2 POP POP JUMP JUMPDEST PUSH1 0x0 PUSH1 0x20 DUP3 ADD SWAP1 POP PUSH2 0x120D PUSH1 0x0 DUP4 ADD DUP5 PUSH2 0xF7D JUMP JUMPDEST SWAP3 SWAP2 POP POP JUMP JUMPDEST PUSH1 0x0 PUSH1 0x20 DUP3 ADD SWAP1 POP DUP2 DUP2 SUB PUSH1 0x0 DUP4 ADD MSTORE PUSH2 0x122C DUP2 PUSH2 0xFFE JUMP JUMPDEST SWAP1 POP SWAP2 SWAP1 POP JUMP JUMPDEST PUSH1 0x0 PUSH1 0x20 DUP3 ADD SWAP1 POP DUP2 DUP2 SUB PUSH1 0x0 DUP4 ADD MSTORE PUSH2 0x124C DUP2 PUSH2 0x1021 JUMP JUMPDEST SWAP1 POP SWAP2 SWAP1 POP JUMP JUMPDEST PUSH1 0x0 PUSH1 0x20 DUP3 ADD SWAP1 POP DUP2 DUP2 SUB PUSH1 0x0 DUP4 ADD MSTORE PUSH2 0x126C DUP2 PUSH2 0x1044 JUMP JUMPDEST SWAP1 POP SWAP2 SWAP1 POP JUMP JUMPDEST PUSH1 0x0 PUSH1 0x20 DUP3 ADD SWAP1 POP PUSH2 0x1288 PUSH1 0x0 DUP4 ADD DUP5 PUSH2 0x1134 JUMP JUMPDEST SWAP3 SWAP2 POP POP JUMP JUMPDEST PUSH1 0x0 PUSH1 0xA0 DUP3 ADD SWAP1 POP PUSH2 0x12A3 PUSH1 0x0 DUP4 ADD DUP9 PUSH2 0x1134 JUMP JUMPDEST DUP2 DUP2 SUB PUSH1 0x20 DUP4 ADD MSTORE PUSH2 0x12B5 DUP2 DUP8 PUSH2 0xFC5 JUMP JUMPDEST SWAP1 POP PUSH2 0x12C4 PUSH1 0x40 DUP4 ADD DUP7 PUSH2 0xEEA JUMP JUMPDEST PUSH2 0x12D1 PUSH1 0x60 DUP4 ADD DUP6 PUSH2 0x1134 JUMP JUMPDEST PUSH2 0x12DE PUSH1 0x80 DUP4 ADD DUP5 PUSH2 0x1134 JUMP JUMPDEST SWAP7 SWAP6 POP POP POP POP POP POP JUMP JUMPDEST PUSH1 0x0 PUSH2 0x12F2 PUSH2 0x1303 JUMP JUMPDEST SWAP1 POP PUSH2 0x12FE DUP3 DUP3 PUSH2 0x14FC JUMP JUMPDEST SWAP2 SWAP1 POP JUMP JUMPDEST PUSH1 0x0 PUSH1 0x40 MLOAD SWAP1 POP SWAP1 JUMP JUMPDEST PUSH1 0x0 PUSH8 0xFFFFFFFFFFFFFFFF DUP3 GT ISZERO PUSH2 0x1328 JUMPI PUSH2 0x1327 PUSH2 0x158B JUMP JUMPDEST JUMPDEST PUSH2 0x1331 DUP3 PUSH2 0x15BA JUMP JUMPDEST SWAP1 POP PUSH1 0x20 DUP2 ADD SWAP1 POP SWAP2 SWAP1 POP JUMP JUMPDEST PUSH1 0x0 DUP2 SWAP1 POP PUSH1 0x20 DUP3 ADD SWAP1 POP SWAP2 SWAP1 POP JUMP JUMPDEST PUSH1 0x0 DUP2 MLOAD SWAP1 POP SWAP2 SWAP1 POP JUMP JUMPDEST PUSH1 0x0 DUP2 MLOAD SWAP1 POP SWAP2 SWAP1 POP JUMP JUMPDEST PUSH1 0x0 PUSH1 0x20 DUP3 ADD SWAP1 POP SWAP2 SWAP1 POP JUMP JUMPDEST PUSH1 0x0 DUP3 DUP3 MSTORE PUSH1 0x20 DUP3 ADD SWAP1 POP SWAP3 SWAP2 POP POP JUMP JUMPDEST PUSH1 0x0 DUP3 DUP3 MSTORE PUSH1 0x20 DUP3 ADD SWAP1 POP SWAP3 SWAP2 POP POP JUMP JUMPDEST PUSH1 0x0 DUP3 DUP3 MSTORE PUSH1 0x20 DUP3 ADD SWAP1 POP SWAP3 SWAP2 POP POP JUMP JUMPDEST PUSH1 0x0 PUSH2 0x13AF DUP3 PUSH2 0x147E JUMP JUMPDEST SWAP2 POP PUSH2 0x13BA DUP4 PUSH2 0x147E JUMP JUMPDEST SWAP3 POP DUP3 PUSH32 0xFFFFFFFFFFFFFFFFFFFFFFFFFFFFFFFFFFFFFFFFFFFFFFFFFFFFFFFFFFFFFFFF SUB DUP3 GT ISZERO PUSH2 0x13EF JUMPI PUSH2 0x13EE PUSH2 0x152D JUMP JUMPDEST JUMPDEST DUP3 DUP3 ADD SWAP1 POP SWAP3 SWAP2 POP POP JUMP JUMPDEST PUSH1 0x0 PUSH2 0x1405 DUP3 PUSH2 0x147E JUMP JUMPDEST SWAP2 POP PUSH2 0x1410 DUP4 PUSH2 0x147E JUMP JUMPDEST SWAP3 POP DUP3 DUP3 LT ISZERO PUSH2 0x1423 JUMPI PUSH2 0x1422 PUSH2 0x152D JUMP JUMPDEST JUMPDEST DUP3 DUP3 SUB SWAP1 POP SWAP3 SWAP2 POP POP JUMP JUMPDEST PUSH1 0x0 PUSH2 0x1439 DUP3 PUSH2 0x145E JUMP JUMPDEST SWAP1 POP SWAP2 SWAP1 POP JUMP JUMPDEST PUSH1 0x0 PUSH2 0x144B DUP3 PUSH2 0x145E JUMP JUMPDEST SWAP1 POP SWAP2 SWAP1 POP JUMP JUMPDEST PUSH1 0x0 DUP2 ISZERO ISZERO SWAP1 POP SWAP2 SWAP1 POP JUMP JUMPDEST PUSH1 0x0 PUSH20 0xFFFFFFFFFFFFFFFFFFFFFFFFFFFFFFFFFFFFFFFF DUP3 AND SWAP1 POP SWAP2 SWAP1 POP JUMP JUMPDEST PUSH1 0x0 DUP2 SWAP1 POP SWAP2 SWAP1 POP JUMP JUMPDEST DUP3 DUP2 DUP4 CALLDATACOPY PUSH1 0x0 DUP4 DUP4 ADD MSTORE POP POP POP JUMP JUMPDEST PUSH1 0x0 JUMPDEST DUP4 DUP2 LT ISZERO PUSH2 0x14B5 JUMPI DUP1 DUP3 ADD MLOAD DUP2 DUP5 ADD MSTORE PUSH1 0x20 DUP2 ADD SWAP1 POP PUSH2 0x149A JUMP JUMPDEST DUP4 DUP2 GT ISZERO PUSH2 0x14C4 JUMPI PUSH1 0x0 DUP5 DUP5 ADD MSTORE JUMPDEST POP POP POP POP JUMP JUMPDEST PUSH1 0x0 PUSH1 0x2 DUP3 DIV SWAP1 POP PUSH1 0x1 DUP3 AND DUP1 PUSH2 0x14E2 JUMPI PUSH1 0x7F DUP3 AND SWAP2 POP JUMPDEST PUSH1 0x20 DUP3 LT DUP2 EQ ISZERO PUSH2 0x14F6 JUMPI PUSH2 0x14F5 PUSH2 0x155C JUMP JUMPDEST JUMPDEST POP SWAP2 SWAP1 POP JUMP JUMPDEST PUSH2 0x1505 DUP3 PUSH2 0x15BA JUMP JUMPDEST DUP2 ADD DUP2 DUP2 LT PUSH8 0xFFFFFFFFFFFFFFFF DUP3 GT OR ISZERO PUSH2 0x1524 JUMPI PUSH2 0x1523 PUSH2 0x158B JUMP JUMPDEST JUMPDEST DUP1 PUSH1 0x40 MSTORE POP POP POP JUMP JUMPDEST PUSH32 0x4E487B7100000000000000000000000000000000000000000000000000000000 PUSH1 0x0 MSTORE PUSH1 0x11 PUSH1 0x4 MSTORE PUSH1 0x24 PUSH1 0x0 REVERT JUMPDEST PUSH32 0x4E487B7100000000000000000000000000000000000000000000000000000000 PUSH1 0x0 MSTORE PUSH1 0x22 PUSH1 0x4 MSTORE PUSH1 0x24 PUSH1 0x0 REVERT JUMPDEST PUSH32 0x4E487B7100000000000000000000000000000000000000000000000000000000 PUSH1 0x0 MSTORE PUSH1 0x41 PUSH1 0x4 MSTORE PUSH1 0x24 PUSH1 0x0 REVERT JUMPDEST PUSH1 0x0 PUSH1 0x1F NOT PUSH1 0x1F DUP4 ADD AND SWAP1 POP SWAP2 SWAP1 POP JUMP JUMPDEST PUSH32 0x43616D706169676E20686173206E6F7420726561636865642069747320676F61 PUSH1 0x0 DUP3 ADD MSTORE PUSH32 0x6C00000000000000000000000000000000000000000000000000000000000000 PUSH1 0x20 DUP3 ADD MSTORE POP JUMP JUMPDEST PUSH32 0x43616D706169676E2068617320616C726561647920636F6D706C657465640000 PUSH1 0x0 DUP3 ADD MSTORE POP JUMP JUMPDEST PUSH32 0x43616D706169676E20646561646C696E65206861732070617373656400000000 PUSH1 0x0 DUP3 ADD MSTORE POP JUMP JUMPDEST PUSH2 0x1675 DUP2 PUSH2 0x142E JUMP JUMPDEST DUP2 EQ PUSH2 0x1680 JUMPI PUSH1 0x0 DUP1 REVERT JUMPDEST POP JUMP JUMPDEST PUSH2 0x168C DUP2 PUSH2 0x147E JUMP JUMPDEST DUP2 EQ PUSH2 0x1697 JUMPI PUSH1 0x0 DUP1 REVERT JUMPDEST POP JUMP INVALID LOG2 PUSH5 0x6970667358 0x22 SLT KECCAK256 LOG2 0xE9 PUSH9 0x7E0E77DC204E983F54 0x1F MSTORE 0xD6 DUP1 SAR 0xCF SIGNEXTEND XOR SLOAD 0xB0 0xA5 GT CALLER CODECOPY ADD GAS 0xB7 PUSH9 0x3A7B64736F6C634300 ADDMOD DIV STOP CALLER "},"gasEstimates":{"creation":{"codeDepositCost":"1168000","executionCost":"1214","totalCost":"1169214"},"external":{"campaigns(uint256)":"infinite","completeCampaign(uint256)":"infinite","createCampaign(string,uint256,uint256,string,string)":"infinite","donate(uint256)":"infinite","donations(uint256,address)":"infinite","getAmountRaised(uint256)":"infinite","getCampaigns()":"infinite","hasReachedGoal(uint256)":"3178"}},"methodIdentifiers":{"campaigns(uint256)":"141961bc","completeCampaign(uint256)":"9553f180","createCampaign(string,uint256,uint256,string,string)":"4b2aafcc","donate(uint256)":"f14faf6f","donations(uint256,address)":"ee1554a3","getAmountRaised(uint256)":"641805ff","getCampaigns()":"a6b03633","hasReachedGoal(uint256)":"530295fb"}},"storageLayout":{"storage":[{"astId":24,"contract":"contracts/Crowdfunding.sol:Crowdfunding","label":"donations","offset":0,"slot":"0","type":"t_mapping(t_uint256,t_mapping(t_address,t_uint256))"},{"astId":28,"contract":"contracts/Crowdfunding.sol:Crowdfunding","label":"campaigns","offset":0,"slot":"1","type":"t_array(t_struct(Campaign)18_storage)dyn_storage"}],"types":{"t_address":{"encoding":"inplace","label":"address","numberOfBytes":"20"},"t_address_payable":{"encoding":"inplace","label":"address payable","numberOfBytes":"20"},"t_array(t_struct(Campaign)18_storage)dyn_storage":{"base":"t_struct(Campaign)18_storage","encoding":"dynamic_array","label":"struct Crowdfunding.Campaign[]","numberOfBytes":"32"},"t_bool":{"encoding":"inplace","label":"bool","numberOfBytes":"1"},"t_mapping(t_address,t_uint256)":{"encoding":"mapping","key":"t_address","label":"mapping(address => uint256)","numberOfBytes":"32","value":"t_uint256"},"t_mapping(t_uint256,t_mapping(t_address,t_uint256))":{"encoding":"mapping","key":"t_uint256","label":"mapping(uint256 => mapping(address => uint256))","numberOfBytes":"32","value":"t_mapping(t_address,t_uint256)"},"t_string_storage":{"encoding":"bytes","label":"string","numberOfBytes":"32"},"t_struct(Campaign)18_storage":{"encoding":"inplace","label":"struct Crowdfunding.Campaign","members":[{"astId":3,"contract":"contracts/Crowdfunding.sol:Crowdfunding","label":"creator","offset":0,"slot":"0","type":"t_address_payable"},{"astId":5,"contract":"contracts/Crowdfunding.sol:Crowdfunding","label":"name","offset":0,"slot":"1","type":"t_string_storage"},{"astId":7,"contract":"contracts/Crowdfunding.sol:Crowdfunding","label":"description","offset":0,"slot":"2","type":"t_string_storage"},{"astId":9,"contract":"contracts/Crowdfunding.sol:Crowdfunding","label":"image","offset":0,"slot":"3","type":"t_string_storage"},{"astId":11,"contract":"contracts/Crowdfunding.sol:Crowdfunding","label":"goal","offset":0,"slot":"4","type":"t_uint256"},{"astId":13,"contract":"contracts/Crowdfunding.sol:Crowdfunding","label":"raised","offset":0,"slot":"5","type":"t_uint256"},{"astId":15,"contract":"contracts/Crowdfunding.sol:Crowdfunding","label":"deadline","offset":0,"slot":"6","type":"t_uint256"},{"astId":17,"contract":"contracts/Crowdfunding.sol:Crowdfunding","label":"completed","offset":0,"slot":"7","type":"t_bool"}],"numberOfBytes":"256"},"t_uint256":{"encoding":"inplace","label":"uint256","numberOfBytes":"32"}}},"userdoc":{"kind":"user","methods":{},"version":1}}}}